:0400000007EF00F016
:0A00080041822AED07F0B7EF08F07F
:1008000000546869732069732074657374696E6736
:070810002055415254000085
:10081800000E0001676F000E00016B6F000E6A6F1B
:1008280065C01FF066C020F02DEC09F01F1E201EC9
:100838001F4A202A800E1F26000E20220001625126
:100848001F5C000163512058D8A005D062C068F031
:1008580063C069F012D065C01FF066C020F02DECAF
:1008680009F01F1E201E1F4A202A800E1F24000187
:10087800686F000E20200001696F000E00016B6F89
:10088800000E6A6F14D065C025F066C026F060C0FF
:1008980027F061C028F026EC05F09D98ACAAAC8A38
:1008A8009D880001604B612B00016A4B6B2B000196
:1008B800685100016A5D0001695100016B59D8B0A7
:1008C8001FD0E1D765C01FF066C020F0D7EC07F055
:1008D8001F502010D8A4F6D765C025F066C026F0B2
:1008E80060C027F061C028F026EC05F09D98ACAAFE
:1008F800AC8A9D880001604B612B00016A4B6B2B11
:100908000001625100016A5D0001635100016B59E9
:10091800D8A0D8D7000164510001D8B404D0ACA243
:10092800ACAA01D0FCD7000167511200000E0001EB
:10093800D96F9490000E0001D86F0A0ED76F67EC3C
:1009480007F0010E00016C6F080E00016D6F010EBB
:100958001F6E080E206E98EC08F01FC06EF020C0C5
:100968006FF0010E0001706FFCEC08F0010E000141
:10097800656F0A0E0FEC09F0010E0001656F0D0E90
:100988000FEC09F040EC09F00001D96F0001D951D2
:10099800D8B427D0730E0001656F000E0001666F92
:1009A800D9C067F00001686B1EEC09F0730E0001F6
:1009B8006C6F000E00016D6FD9C06EF000016F6B97
:1009C800010E0001706FFCEC08F0010E0001656F6C
:1009D8000A0E0FEC09F0010E0001656F0D0E0FEC09
:1009E80009F082803D0E0001726FE10E0001716F07
:1009F8003F0EE82EFED7712FFCD7722FFAD700D002
:100A080082903D0E0001726FE10E0001716F3F0E82
:100A1800E82EFED7712FFCD7722FFAD700D0010E1F
:100A28000001656F480E0FEC09F0010E0001656FBB
:100A38000A0E0FEC09F0010E0001656F0D0E0FECA8
:100A480009F0A0D725C01FF026C020F0D7EC07F08A
:100A58001F502010D8B403D025682668120027C07C
:100A6800F6FF28C0F7FFF86A20EE02F02550D926D5
:100A78002650DA22DECF29F0DDCF2AF020EE08F06A
:100A88002550D9262650DA22DECF2BF0DDCF2CF0E8
:100A980029502B24D96E2A502C20DA6E070EF764C1
:100AA80003D00800F55005D0F6CFE1FFF7CFE2FFFD
:100AB800E750DF6E20EE02F02550D9262650DA22C4
:100AC800DECF29F0DDCF2AF0010E2926000E2A22DA
:100AD80020EE02F02550D9262650DA2229C0DEFF62
:100AE8002AC0DDFF20EE04F02550D9262650DA2250
:100AF80010EE02F02550E1262650E222DE50E618DC
:100B08000EE1DE50E618D8A40AD020EE02F02550F7
:100B1800D9262650DA22000EDE6E000EDD6E20EE9B
:100B280006F02550D9262650DA22DE2A000EDD22CC
:100B3800000E266E000E256E120007C001F008C0D8
:100B480002F009EC08F001500210D8A4120009C004
:100B5800F6FF0AC0F7FFF86A20EE02F00750D92620
:100B68000850DA22DECF0BF0DDCF0CF020EE08F0D3
:100B78000750D9260850DA22DECF0DF0DDCF0EF06F
:100B88000B500D24D96E0C500E20DA6E070EF76448
:100B980003D00800F55005D0F6CFE1FFF7CFE2FF0C
:100BA800E750DF6E20EE02F00750D9260850DA220F
:100BB800DECF0BF0DDCF0CF0010E0B26000E0C2261
:100BC80020EE02F00750D9260850DA220BC0DEFFCB
:100BD8000CC0DDFF20EE04F00750D9260850DA22B9
:100BE80010EE02F00750E1260850E222DE50E61827
:100BF8000EE1DE50E618D8A40AD020EE02F0075025
:100C0800D9260850DA22000EDE6E000EDD6E20EEC8
:100C180006F00750D9260850DA22DE2A000EDD2217
:100C28001200000E0001606F000E0001646F000EDC
:100C3800636F2BC01FF02CC020F02DEC09F0295059
:100C48001F5C2A502058D8A005D029C061F02AC0BE
:100C580062F00AD02BC01FF02CC020F02DEC09F058
:100C68001FC061F020C062F0000E0001646F000E2A
:100C7800636F0FD02BC01FF02CC020F027C021F0CD
:100C880028C022F07CEC06F0274A282A0001634B92
:100C9800642B000161510001635D00016251000194
:100CA8006459D8B01AD0E6D72BC01FF02CC020F05A
:100CB800CEEC08F01F502010D8A4F6D72BC01FF098
:100CC8002CC020F027C021F028C022F07CEC06F0D0
:100CD800274A282A0001634B642B29500001635DD1
:100CE8002A5000016459D8A0DFD7000160511200D2
:100CF8001FC0D9FF20C0DAFFDECF23F0DDCF24F0FC
:100D080020EE08F01F50D9262050DA22DECF25F039
:100D1800DDCF26F023502524D96E24502620DA6E04
:100D280021C0E1FF22C0E2FFDFCFE7FF1FC0D9FFEC
:100D380020C0DAFFDECF23F0DDCF24F0010E23261A
:100D4800000E24221FC0D9FF20C0DAFF23C0DEFF17
:100D580024C0DDFF20EE04F01F50D9262050DA22EF
:100D68001FC0E1FF20C0E2FFDE50E6180CE1DE50B4
:100D7800E618D8A408D01FC0D9FF20C0DAFF000E9B
:100D8800DE6E000EDD6E20EE06F01F50D9262050D4
:100D9800DA22DE06000EDD5A000E206E000E1F6EEF
:100DA800120001C0D9FF02C0DAFFDECF05F0DDCFA7
:100DB80006F020EE08F00150D9260250DA22DECFE4
:100DC80007F0DDCF08F005500724D96E065008203B
:100DD800DA6E03C0E1FF04C0E2FFDFCFE7FF01C026
:100DE800D9FF02C0DAFFDECF05F0DDCF06F0010E35
:100DF8000526000E062201C0D9FF02C0DAFF05C091
:100E0800DEFF06C0DDFF20EE04F00150D9260250B7
:100E1800DA2201C0E1FF02C0E2FFDE50E6180CE171
:100E2800DE50E618D8A408D001C0D9FF02C0DAFF06
:100E3800000EDE6E000EDD6E20EE06F00150D926A3
:100E48000250DA22DE06000EDD5A12000600FACF42
:100E580011F0FBCF12F0E9CF13F0EACF14F0E1CF95
:100E680015F0E2CF16F0D9CF17F0DACF18F0F3CF9C
:100E780019F0F4CF1AF0F6CF1BF0F7CF1CF0F8CF2B
:100E88001DF0F5CF1EF09FEC07F01EC0F5FF1DC04A
:100E9800F8FF1CC0F7FF1BC0F6FF1AC0F4FF19C00B
:100EA800F3FF18C0DAFF17C0D9FF16C0E2FF15C05C
:100EB800E1FF14C0EAFF13C0E9FF12C0FBFF11C035
:100EC800FAFF41921100AC9CAC9AAC98AC96AC84F9
:100ED800AB8EAB9CAB88AB96B89AB898B886B892EC
:100EE800B890040EB06EE10EAF6E948E949C370EDF
:100EF8001F6E000E206E800E216E010E226E000EF7
:100F0800246E800E236E3BEC08F02D0E1F6E000E33
:100F1800206E000E216E010E226E000E246E800ED1
:100F2800236E3BEC08F09D889D8A9F8A9F88D08E0F
:100F3800F28EF28C12009EB89DA819D02D0E016E6B
:100F4800000E026EE5EC08F001500210D8A40DD096
:100F58002D0E016E000E026E100E036E000E046E52
:100F6800D5EC06F010C0ADFF02D0ACB2AC9A9EAA88
:100F780012009DAA1200AECF0FF0370E016E000EC0
:100F8800026E09EC08F001500210D8A40AD0370EFE
:100F9800076E000E086E0F0E096E000E0A6EA1ECA9
:100FA80005F09E9A120020EE02F01F50D92620501C
:100FB800DA22DECF21F0DDCF22F0010E2124236ECC
:100FC800000E2220246E20EE04F01F50D926205057
:100FD800DA222350DE1808E12450DE18D8A404D001
:100FE800000E246E000E236E1FC0D9FF20C0DAFF4A
:100FF8002350DE1806E12450DE18D8A402D0010ED2
:1010080001D0000E1F6E206A120020EE02F001507F
:10101800D9260250DA22DECF03F0DDCF04F0010E2C
:101028000324056E000E0420066E20EE04F0015025
:10103800D9260250DA220550DE1808E10650DE18DB
:10104800D8A404D0000E066E000E056E01C0D9FFAC
:1010580002C0DAFF0550DE1806E10650DE18D8A4F3
:1010680002D0010E01D0000E016E026A120020EEBD
:1010780008F01F50D9262050DA2221C0DEFF22C0F6
:10108800DDFF1FC0D9FF20C0DAFF000EDE6E000EA4
:10109800DD6E20EE02F01F50D9262050DA22000E15
:1010A800DE6E000EDD6E20EE04F01F50D9262050B3
:1010B800DA2223C0DEFF24C0DDFF20EE06F01F5039
:1010C800D9262050DA22000EDE6E000EDD6E1200E8
:1010D8000001636F000E0001646F61C01FF062C001
:1010E80020F0D7EC07F01F502010D8A4F6D761C025
:1010F80025F062C026F0630E276E000E286E26ECDF
:1011080005F025500001646F9D98ACAAAC8A9D88B3
:10111800000160510001D8B404D0ACA2ACAA01D03F
:10112800FCD70001645112001FC023F020C024F036
:1011380002D0234A242A23C0F6FF24C0F7FF080060
:10114800F5500009D8A4F5D71FC021F020C022F01F
:10115800211E221E214A222A235021241F6E245098
:101168002220206E120001EE00F011EE00F0EE6A6F
:10117800E550E150FCE1E250FAE100EE2DF0140EEA
:10118800EE6AE806FDE141904192000EF86E00011A
:101198009AEF04F01FC0D9FF20C0DAFF10EE02F06A
:1011A8001F50E1262050E222DE50E61806E1DE500C
:1011B800E618D8A402D0010E01D0000E1F6E206AD6
:1011C800120001C0D9FF02C0DAFF10EE02F0015090
:1011D800E1260250E222DE50E61806E1DE50E6186B
:1011E800D8A402D0010E01D0000E016E026A1200CE
:1011F8006CC060F06DC061F06EC062F06FC063F0EB
:1012080070C064F02D0E0001656F000E0001666F5E
:101218000CEC04F012000001666F65C060F02D0E42
:101228000001616F000E0001626F000166516CECF5
:1012380008F0120065C027F066C028F067C029F0E2
:1012480068C02AF0370E2B6E000E2C6E15EC06F0D7
:10125800120020EE06F01F50D9262050DA22DECFE9
:101268001FF0DDCF20F0120021C01FF022C020F0B7
:101278002DEC09F01F501200370E216E000E226E61
:0612880038EC09F0120031
:020000040020DA
:08000000FFFFFFFFFFFFFFFF00
:020000040030CA
:0E000000020E1F1FFF8385FF0FC00FE00F4091
:00000001FF
